{
    "_format": "hh-sol-artifact-1",
    "contractName": "CoffeePortal",
    "sourceName": "contracts/CofeePortal.sol",
    "abi": [
        {
            "inputs": [],
            "stateMutability": "payable",
            "type": "constructor"
        },
        {
            "anonymous": false,
            "inputs": [
                {
                    "indexed": true,
                    "internalType": "address",
                    "name": "from",
                    "type": "address"
                },
                {
                    "indexed": false,
                    "internalType": "uint256",
                    "name": "timestamp",
                    "type": "uint256"
                },
                {
                    "indexed": false,
                    "internalType": "string",
                    "name": "message",
                    "type": "string"
                },
                {
                    "indexed": false,
                    "internalType": "string",
                    "name": "name",
                    "type": "string"
                }
            ],
            "name": "NewCoffee",
            "type": "event"
        },
        {
            "inputs": [
                {
                    "internalType": "string",
                    "name": "_message",
                    "type": "string"
                },
                {
                    "internalType": "string",
                    "name": "_name",
                    "type": "string"
                },
                {
                    "internalType": "uint256",
                    "name": "_payAmount",
                    "type": "uint256"
                }
            ],
            "name": "buyCoffee",
            "outputs": [],
            "stateMutability": "payable",
            "type": "function"
        },
        {
            "inputs": [],
            "name": "getAllCoffee",
            "outputs": [
                {
                    "components": [
                        {
                            "internalType": "address",
                            "name": "giver",
                            "type": "address"
                        },
                        {
                            "internalType": "string",
                            "name": "message",
                            "type": "string"
                        },
                        {
                            "internalType": "string",
                            "name": "name",
                            "type": "string"
                        },
                        {
                            "internalType": "uint256",
                            "name": "timestamp",
                            "type": "uint256"
                        }
                    ],
                    "internalType": "struct CoffeePortal.Coffee[]",
                    "name": "",
                    "type": "tuple[]"
                }
            ],
            "stateMutability": "view",
            "type": "function"
        },
        {
            "inputs": [],
            "name": "getTotalCoffee",
            "outputs": [
                {
                    "internalType": "uint256",
                    "name": "",
                    "type": "uint256"
                }
            ],
            "stateMutability": "view",
            "type": "function"
        },
        {
            "inputs": [],
            "name": "owner",
            "outputs": [
                {
                    "internalType": "address payable",
                    "name": "",
                    "type": "address"
                }
            ],
            "stateMutability": "view",
            "type": "function"
        }
    ],
    "bytecode": "0x60806040526200004f6040518060400160405280601281526020017f636f6e7472616374206465706c6f7965642e00000000000000000000000000008152506200009660201b620005c71760201c565b33600160006101000a81548173ffffffffffffffffffffffffffffffffffffffff021916908373ffffffffffffffffffffffffffffffffffffffff16021790555062000220565b6200013681604051602401620000ad9190620001fc565b6040516020818303038152906040527f41304fac000000000000000000000000000000000000000000000000000000007bffffffffffffffffffffffffffffffffffffffffffffffffffffffff19166020820180517bffffffffffffffffffffffffffffffffffffffffffffffffffffffff83818316178352505050506200013960201b60201c565b50565b60008151905060006a636f6e736f6c652e6c6f679050602083016000808483855afa5050505050565b600081519050919050565b600082825260208201905092915050565b60005b838110156200019e57808201518184015260208101905062000181565b60008484015250505050565b6000601f19601f8301169050919050565b6000620001c88262000162565b620001d481856200016d565b9350620001e68185602086016200017e565b620001f181620001aa565b840191505092915050565b60006020820190508181036000830152620002188184620001bb565b905092915050565b61125c80620002306000396000f3fe60806040526004361061003f5760003560e01c8063441315c5146100445780634839ee3f146100605780638da5cb5b1461008b578063d386beca146100b6575b600080fd5b61005e60048036038101906100599190610951565b6100e1565b005b34801561006c57600080fd5b50610075610390565b60405161008291906109eb565b60405180910390f35b34801561009757600080fd5b506100a06103be565b6040516100ad9190610a47565b60405180910390f35b3480156100c257600080fd5b506100cb6103e4565b6040516100d89190610c3d565b60405180910390f35b600066038d7ea4c68000905080821115610130576040517f08c379a000000000000000000000000000000000000000000000000000000000815260040161012790610ce2565b60405180910390fd5b60016000808282546101429190610d31565b925050819055506101886040518060400160405280601c81526020017f257320686173206a75737420626f75676874206120636f66666565210000000081525033610660565b600260405180608001604052803373ffffffffffffffffffffffffffffffffffffffff16815260200186815260200185815260200142815250908060018154018082558091505060019003906000526020600020906004020160009091909190915060008201518160000160006101000a81548173ffffffffffffffffffffffffffffffffffffffff021916908373ffffffffffffffffffffffffffffffffffffffff16021790555060208201518160010190816102469190610f71565b50604082015181600201908161025c9190610f71565b506060820151816003015550506000600160009054906101000a900473ffffffffffffffffffffffffffffffffffffffff1673ffffffffffffffffffffffffffffffffffffffff16836040516102b190611074565b60006040518083038185875af1925050503d80600081146102ee576040519150601f19603f3d011682016040523d82523d6000602084013e6102f3565b606091505b5050905080610337576040517f08c379a000000000000000000000000000000000000000000000000000000000815260040161032e906110d5565b60405180910390fd5b3373ffffffffffffffffffffffffffffffffffffffff167f5d202edb9ac9aca913189e3c829f7fdbba23859e91379c70ecf7874fe39632a74287876040516103819392919061112e565b60405180910390a25050505050565b60006103b6604051806060016040528060228152602001611205602291396000546106fc565b600054905090565b600160009054906101000a900473ffffffffffffffffffffffffffffffffffffffff1681565b60606002805480602002602001604051908101604052809291908181526020016000905b828210156105be57838290600052602060002090600402016040518060800160405290816000820160009054906101000a900473ffffffffffffffffffffffffffffffffffffffff1673ffffffffffffffffffffffffffffffffffffffff1673ffffffffffffffffffffffffffffffffffffffff16815260200160018201805461049190610d94565b80601f01602080910402602001604051908101604052809291908181526020018280546104bd90610d94565b801561050a5780601f106104df5761010080835404028352916020019161050a565b820191906000526020600020905b8154815290600101906020018083116104ed57829003601f168201915b5050505050815260200160028201805461052390610d94565b80601f016020809104026020016040519081016040528092919081815260200182805461054f90610d94565b801561059c5780601f106105715761010080835404028352916020019161059c565b820191906000526020600020905b81548152906001019060200180831161057f57829003601f168201915b5050505050815260200160038201548152505081526020019060010190610408565b50505050905090565b61065d816040516024016105db9190611173565b6040516020818303038152906040527f41304fac000000000000000000000000000000000000000000000000000000007bffffffffffffffffffffffffffffffffffffffffffffffffffffffff19166020820180517bffffffffffffffffffffffffffffffffffffffffffffffffffffffff8381831617835250505050610798565b50565b6106f882826040516024016106769291906111a4565b6040516020818303038152906040527f319af333000000000000000000000000000000000000000000000000000000007bffffffffffffffffffffffffffffffffffffffffffffffffffffffff19166020820180517bffffffffffffffffffffffffffffffffffffffffffffffffffffffff8381831617835250505050610798565b5050565b61079482826040516024016107129291906111d4565b6040516020818303038152906040527fb60e72cc000000000000000000000000000000000000000000000000000000007bffffffffffffffffffffffffffffffffffffffffffffffffffffffff19166020820180517bffffffffffffffffffffffffffffffffffffffffffffffffffffffff8381831617835250505050610798565b5050565b60008151905060006a636f6e736f6c652e6c6f679050602083016000808483855afa5050505050565b6000604051905090565b600080fd5b600080fd5b600080fd5b600080fd5b6000601f19601f8301169050919050565b7f4e487b7100000000000000000000000000000000000000000000000000000000600052604160045260246000fd5b610828826107df565b810181811067ffffffffffffffff82111715610847576108466107f0565b5b80604052505050565b600061085a6107c1565b9050610866828261081f565b919050565b600067ffffffffffffffff821115610886576108856107f0565b5b61088f826107df565b9050602081019050919050565b82818337600083830152505050565b60006108be6108b98461086b565b610850565b9050828152602081018484840111156108da576108d96107da565b5b6108e584828561089c565b509392505050565b600082601f830112610902576109016107d5565b5b81356109128482602086016108ab565b91505092915050565b6000819050919050565b61092e8161091b565b811461093957600080fd5b50565b60008135905061094b81610925565b92915050565b60008060006060848603121561096a576109696107cb565b5b600084013567ffffffffffffffff811115610988576109876107d0565b5b610994868287016108ed565b935050602084013567ffffffffffffffff8111156109b5576109b46107d0565b5b6109c1868287016108ed565b92505060406109d28682870161093c565b9150509250925092565b6109e58161091b565b82525050565b6000602082019050610a0060008301846109dc565b92915050565b600073ffffffffffffffffffffffffffffffffffffffff82169050919050565b6000610a3182610a06565b9050919050565b610a4181610a26565b82525050565b6000602082019050610a5c6000830184610a38565b92915050565b600081519050919050565b600082825260208201905092915050565b6000819050602082019050919050565b6000610a9982610a06565b9050919050565b610aa981610a8e565b82525050565b600081519050919050565b600082825260208201905092915050565b60005b83811015610ae9578082015181840152602081019050610ace565b60008484015250505050565b6000610b0082610aaf565b610b0a8185610aba565b9350610b1a818560208601610acb565b610b23816107df565b840191505092915050565b610b378161091b565b82525050565b6000608083016000830151610b556000860182610aa0565b5060208301518482036020860152610b6d8282610af5565b91505060408301518482036040860152610b878282610af5565b9150506060830151610b9c6060860182610b2e565b508091505092915050565b6000610bb38383610b3d565b905092915050565b6000602082019050919050565b6000610bd382610a62565b610bdd8185610a6d565b935083602082028501610bef85610a7e565b8060005b85811015610c2b5784840389528151610c0c8582610ba7565b9450610c1783610bbb565b925060208a01995050600181019050610bf3565b50829750879550505050505092915050565b60006020820190508181036000830152610c578184610bc8565b905092915050565b600082825260208201905092915050565b7f496e73756666696369656e742045746865722070726f766964656420666f722060008201527f436f666665652100000000000000000000000000000000000000000000000000602082015250565b6000610ccc602783610c5f565b9150610cd782610c70565b604082019050919050565b60006020820190508181036000830152610cfb81610cbf565b9050919050565b7f4e487b7100000000000000000000000000000000000000000000000000000000600052601160045260246000fd5b6000610d3c8261091b565b9150610d478361091b565b9250828201905080821115610d5f57610d5e610d02565b5b92915050565b7f4e487b7100000000000000000000000000000000000000000000000000000000600052602260045260246000fd5b60006002820490506001821680610dac57607f821691505b602082108103610dbf57610dbe610d65565b5b50919050565b60008190508160005260206000209050919050565b60006020601f8301049050919050565b600082821b905092915050565b600060088302610e277fffffffffffffffffffffffffffffffffffffffffffffffffffffffffffffffff82610dea565b610e318683610dea565b95508019841693508086168417925050509392505050565b6000819050919050565b6000610e6e610e69610e648461091b565b610e49565b61091b565b9050919050565b6000819050919050565b610e8883610e53565b610e9c610e9482610e75565b848454610df7565b825550505050565b600090565b610eb1610ea4565b610ebc818484610e7f565b505050565b5b81811015610ee057610ed5600082610ea9565b600181019050610ec2565b5050565b601f821115610f2557610ef681610dc5565b610eff84610dda565b81016020851015610f0e578190505b610f22610f1a85610dda565b830182610ec1565b50505b505050565b600082821c905092915050565b6000610f4860001984600802610f2a565b1980831691505092915050565b6000610f618383610f37565b9150826002028217905092915050565b610f7a82610aaf565b67ffffffffffffffff811115610f9357610f926107f0565b5b610f9d8254610d94565b610fa8828285610ee4565b600060209050601f831160018114610fdb5760008415610fc9578287015190505b610fd38582610f55565b86555061103b565b601f198416610fe986610dc5565b60005b8281101561101157848901518255600182019150602085019450602081019050610fec565b8683101561102e578489015161102a601f891682610f37565b8355505b6001600288020188555050505b505050505050565b600081905092915050565b50565b600061105e600083611043565b91506110698261104e565b600082019050919050565b600061107f82611051565b9150819050919050565b7f4661696c656420746f2073656e64204574686572000000000000000000000000600082015250565b60006110bf601483610c5f565b91506110ca82611089565b602082019050919050565b600060208201905081810360008301526110ee816110b2565b9050919050565b600061110082610aaf565b61110a8185610c5f565b935061111a818560208601610acb565b611123816107df565b840191505092915050565b600060608201905061114360008301866109dc565b818103602083015261115581856110f5565b9050818103604083015261116981846110f5565b9050949350505050565b6000602082019050818103600083015261118d81846110f5565b905092915050565b61119e81610a8e565b82525050565b600060408201905081810360008301526111be81856110f5565b90506111cd6020830184611195565b9392505050565b600060408201905081810360008301526111ee81856110f5565b90506111fd60208301846109dc565b939250505056fe596f75206861766520256420746f74616c20636f6666656520726563656976656420a264697066735822122034bc7d39da6f80c9acef80c08684d121497806cc8a80121823c0d47a6800715364736f6c63430008110033",
    "linkReferences": {},
    "deployedLinkReferences": {}
}